:100000000C9434000C9451000C9451000C94510049
:100010000C9451000C9451000C9451000C9451001C
:100020000C9451000C9451000C9451000C9451000C
:100030000C9451000C9451000C9451000C945100FC
:100040000C9451000C9451000C940D020C9451002E
:100050000C9451000C9451000C9451000C945100DC
:100060000C9451000C94510011241FBECFEFD8E026
:10007000DEBFCDBF12E0A0E0B1E0E2EBF8E002C0ED
:1000800005900D92A630B107D9F712E0A6E0B2E0D4
:1000900001C01D92A138B107E1F70E94C7020C947C
:1000A00057040C940000EF92FF920F931F93CF938D
:1000B000DF937B018C019B01AC0194E0220F331F85
:1000C000441F551F9A95D1F760E07BE187EB90E0E4
:1000D0000E942104E90140E050E084E0220F331F38
:1000E000441F551F8A95D1F760E07BE187EB90E0D4
:1000F0000E9421042E193F0937FF03C03095219536
:100100003F4FB901882777FD8095982F24E630E08E
:1001100040E050E00E94EF03A80197010E942104F3
:10012000223031051CF020E030E00EC0CE010197F6
:100130008093C4009093C50088E18093C10086E05D
:100140008093C20021E030E0C901DF91CF911F917F
:100150000F91FF90EF9008958091C00087FFFCCF32
:100160008091C6009091C00090689093C00008955F
:100170008093C6008091C00085FFFCCF8091C000B5
:1001800080628093C0000895AC0120E00CC0E09331
:10019000C6008091C00085FFFCCF8091C0008062C6
:1001A0008093C0002F5FFA01E20FF11DE081EE2382
:1001B00071F7089520E034E087FF02C02C9A01C057
:1001C0002C982D9A932F9A95F1F72D98932F9A9515
:1001D000F1F72F5F283011F0880FEECF0895FF92CE
:1001E0000F931F9324E0F22EF82A8F2D0E94DA003D
:1001F0002B9A08EB1BE0C8010197F1F72B988F2D84
:100200008B7F0E94DA002B9AC8010197F1F72B9897
:100210001F910F91FF9008951F93182F807F0E94C8
:10022000EF00812F8295807F0E94EF001F9108953B
:100230001F93182F807F81600E94EF001295107F1E
:10024000812F81600E94EF001F910895EF92FF922D
:100250001F9384B1886384B920ED37E04CE251E00C
:10026000CA010197F1F721503040D1F783E00E9495
:100270000C0138E9E32E3AE3F32EC7010197F1F7B9
:1002800083E00E940C0118EC812F8A95F1F783E03E
:100290000E940C01812F8A95F1F782E00E940C01E7
:1002A000812F8A95F1F788E20E940C01812F8A95AF
:1002B000F1F788E00E940C018CE291E00197F1F7E0
:1002C00081E00E940C01C7010197F1F786E00E94CE
:1002D0000C01812F8A95F1F78EE00E940C01812F8D
:1002E0008A95F1F780E80E940C011A95F1F71F91A9
:1002F000FF90EF900895EF92FF920F931F93CF938B
:10030000DF937C01162F862F80588035E8F4862FE6
:100310000E940C0100E012C0103929F480EC0E9408
:100320000C0110EC06C0103D21F481E00E940C018C
:1003300010E888810E9418010F5F1F5FE701C00F5E
:10034000D11D8881882341F7DF91CF911F910F91B3
:10035000FF90EF900895FF920F931F93CF93DF9339
:10036000F0900302CF2DDD27C7FDD095C75FDD4F8D
:1003700000E010E006C088810E9418010F5F1F4F47
:1003800021978F2D801B87FFF6CF8FEF9FEF9093E4
:10039000040280930302DF91CF911F910F91FF9090
:1003A0000895EF92FF921F93CF93DF9381E00E9415
:1003B0000C0110E04CE2E42E41E0F42E1EC0C12FEF
:1003C000D0E0FE01E35EFD4F80810E941801CE0166
:1003D0008F719070892B49F480E29EE4F701319788
:1003E000F1F70197D9F781E005C0CF70D070CD2B20
:1003F00019F480EC0E940C011F5F8091060218170F
:10040000F0F2DF91CF911F91FF90EF90089585E07A
:1004100085BD16BC1092070208951F920F920FB669
:100420000F9211242F933F938F939F93EF93FF93FA
:1004300091E090930802109207028091C600809389
:100440001D029093060290E021E035E018C035BD12
:1004500016BC90E004C0A89B02C0A89A9F5F809140
:10046000C00087FD02C09D32B0F39D3238F4809108
:10047000C600E22FF0E0E35EFD4F80832F5F24365D
:1004800010F49D3220F39093070220930602FF910F
:10049000EF919F918F913F912F910F900FBE0F90F1
:1004A0001F901895BC018DE192E00E94D5039C013C
:1004B000009711F021E030E0C9010895AC011092DD
:1004C0000602F89420E00CC0E093C6008091C000C2
:1004D00085FFFCCF8091C00080628093C0002F5FB9
:1004E000FA01E20FF11DE081EE2371F78DE08093B8
:1004F000C6008091C00085FFFCCF8091C000806263
:100500008093C000789488E893E12CE231E0F9010F
:100510003197F1F70197D9F780E091E00E945202FC
:100520009C01009711F021E030E0C901089583E0BB
:1005300091E00E945E02892B19F420E030E00EC0A9
:1005400086E091E00E945E0280E191E00E945E02FE
:100550008AE191E00E945E0221E030E0C901089545
:10056000DF93CF93CDB7DEB72D813E816F81788544
:10057000CB01805890408035910510F4C90102C02C
:10058000C90160E80E947B01CF91DF9108950F932C
:100590001F93CF93DF930E94260160E875E280E00D
:1005A00090E00E945300892B21F000D08AE291E074
:1005B00003C000D08BE391E0EDB7FEB79283818357
:1005C0000E94B0020F900F9080E197E22CE231E0A0
:1005D000F9013197F1F70197D9F700D081E591E062
:1005E000EDB7FEB7928381830E94B0028091C10073
:1005F00080688093C10078940F900F900E949702BA
:10060000892B39F081E00E940C0100D08FE691E047
:1006100006C081E00E940C0100D08FE791E0EDB7A9
:10062000FEB7928381830E94B0020F900F9080E307
:1006300095E72CE231E0F9013197F1F70197D9F70D
:1006400000EC11E0C4EAD1E0809108028823D1F1E6
:10065000F8941092080284E991E00E945202892BDA
:10066000C9F081E00E940C0189E991E00E945202E8
:10067000892B31F000D0EDB7FEB7D283C18305C01E
:1006800000D0EDB7FEB7128301830E94B0020F9035
:100690000F9018C085ED91E00E945202892B81F0E5
:1006A00089ED91E00E945202892B09F0219A299A42
:1006B0008FED91E00E945202892B21F0299802C00F
:1006C0000E94D1017894C0CF20910302309104029E
:1006D0008FEF2F3F3807A1F400D000D086EE91E0D5
:1006E000EDB7FEB79283818380E890E094838383A3
:1006F0000E94B00280E00F900F900F900F9008952D
:10070000F901E75FFD4F80812150304030930402B2
:10071000209303020895E0910302F0910402E33173
:10072000F10599F400D000D085EF91E0EDB7FEB768
:100730009283818380E890E0948383830E94B00257
:100740000F900F900F900F9008953196F093040240
:10075000E0930302E75FFD4F80830895CF93DF931B
:10076000EC01009721F480E30E9418011BC097FF61
:1007700006C0D095C195DF4F8DE20E941801CE01D1
:100780006AE070E00E940E04805D0E948B03CE013F
:100790006AE070E00E940E04EB016115710579F7C3
:1007A0000E94AB01DF91CF910895FB015191552338
:1007B000A9F0BF01DC014D9145174111E1F759F452
:1007C000CD010190002049F04D9140154111C9F330
:1007D000FB014111EFCF81E090E001970895629F06
:1007E000D001739FF001829FE00DF11D649FE00D29
:1007F000F11D929FF00D839FF00D749FF00D659F8A
:10080000F00D9927729FB00DE11DF91F639FB00D88
:10081000E11DF91FBD01CF011124089597FB092E99
:1008200007260AD077FD04D02ED006D000201AF477
:10083000709561957F4F0895F6F7909581959F4F3C
:100840000895A1E21A2EAA1BBB1BFD010DC0AA1F11
:10085000BB1FEE1FFF1FA217B307E407F50720F029
:10086000A21BB30BE40BF50B661F771F881F991FA4
:100870001A9469F760957095809590959B01AC01ED
:10088000BD01CF010895AA1BBB1B51E107C0AA1FE0
:10089000BB1FA617B70710F0A61BB70B881F991F21
:1008A0005A95A9F780959095BC01CD010895F894CB
:0208B000FFCF78
:1008B2004F4B0041540041542B434C49503D3100B1
:1008C20041542B434D47463D310041542B434E4D3D
:1008D200493D322C322C302C3000554152545F6944
:1008E2006E697469616C69736564004572726F72D6
:1008F20020696E6974696174696E6720554152544A
:1009020000506C65617365207761697420696E6956
:1009120074696174696E672047534D2E2E2E00470D
:10092200534D20496E697469616C69736564004551
:1009320072726F7220696E6974696174696E672080
:1009420047534D0052494E4700393433373430391A
:100952003531350063616C6C20726563656976655B
:10096200642066726F6D206D792070686F6E65000D
:10097200536F6D656F6E6520656C73652063616C86
:100982006C696E6700434D54006C65646F6E006C59
:1009920065646F666600537461636B2069732065DA
:1009A2006D70747900537461636B2069732066758E
:0609B2006C6C00FFFF0069
:00000001FF
